{
  "address": "0x5FbDB2315678afecb367f032d93F642f64180aa3",
  "abi": [
    {
      "inputs": [],
      "stateMutability": "nonpayable",
      "type": "constructor"
    },
    {
      "anonymous": false,
      "inputs": [
        {
          "indexed": true,
          "internalType": "address",
          "name": "owner",
          "type": "address"
        },
        {
          "indexed": true,
          "internalType": "address",
          "name": "approved",
          "type": "address"
        },
        {
          "indexed": true,
          "internalType": "uint256",
          "name": "tokenId",
          "type": "uint256"
        }
      ],
      "name": "Approval",
      "type": "event"
    },
    {
      "anonymous": false,
      "inputs": [
        {
          "indexed": true,
          "internalType": "address",
          "name": "owner",
          "type": "address"
        },
        {
          "indexed": true,
          "internalType": "address",
          "name": "operator",
          "type": "address"
        },
        {
          "indexed": false,
          "internalType": "bool",
          "name": "approved",
          "type": "bool"
        }
      ],
      "name": "ApprovalForAll",
      "type": "event"
    },
    {
      "anonymous": false,
      "inputs": [
        {
          "indexed": true,
          "internalType": "uint256",
          "name": "tokenId",
          "type": "uint256"
        },
        {
          "indexed": false,
          "internalType": "string",
          "name": "tokenURI",
          "type": "string"
        }
      ],
      "name": "CreatedSVGNFT",
      "type": "event"
    },
    {
      "anonymous": false,
      "inputs": [
        {
          "indexed": true,
          "internalType": "address",
          "name": "previousOwner",
          "type": "address"
        },
        {
          "indexed": true,
          "internalType": "address",
          "name": "newOwner",
          "type": "address"
        }
      ],
      "name": "OwnershipTransferred",
      "type": "event"
    },
    {
      "anonymous": false,
      "inputs": [
        {
          "indexed": true,
          "internalType": "address",
          "name": "from",
          "type": "address"
        },
        {
          "indexed": true,
          "internalType": "address",
          "name": "to",
          "type": "address"
        },
        {
          "indexed": true,
          "internalType": "uint256",
          "name": "tokenId",
          "type": "uint256"
        }
      ],
      "name": "Transfer",
      "type": "event"
    },
    {
      "inputs": [
        {
          "internalType": "address",
          "name": "to",
          "type": "address"
        },
        {
          "internalType": "uint256",
          "name": "tokenId",
          "type": "uint256"
        }
      ],
      "name": "approve",
      "outputs": [],
      "stateMutability": "nonpayable",
      "type": "function"
    },
    {
      "inputs": [
        {
          "internalType": "address",
          "name": "owner",
          "type": "address"
        }
      ],
      "name": "balanceOf",
      "outputs": [
        {
          "internalType": "uint256",
          "name": "",
          "type": "uint256"
        }
      ],
      "stateMutability": "view",
      "type": "function"
    },
    {
      "inputs": [
        {
          "internalType": "string",
          "name": "svg",
          "type": "string"
        }
      ],
      "name": "create",
      "outputs": [],
      "stateMutability": "nonpayable",
      "type": "function"
    },
    {
      "inputs": [
        {
          "internalType": "string",
          "name": "imageURI",
          "type": "string"
        }
      ],
      "name": "formatTokenURI",
      "outputs": [
        {
          "internalType": "string",
          "name": "",
          "type": "string"
        }
      ],
      "stateMutability": "pure",
      "type": "function"
    },
    {
      "inputs": [
        {
          "internalType": "uint256",
          "name": "tokenId",
          "type": "uint256"
        }
      ],
      "name": "getApproved",
      "outputs": [
        {
          "internalType": "address",
          "name": "",
          "type": "address"
        }
      ],
      "stateMutability": "view",
      "type": "function"
    },
    {
      "inputs": [
        {
          "internalType": "address",
          "name": "owner",
          "type": "address"
        },
        {
          "internalType": "address",
          "name": "operator",
          "type": "address"
        }
      ],
      "name": "isApprovedForAll",
      "outputs": [
        {
          "internalType": "bool",
          "name": "",
          "type": "bool"
        }
      ],
      "stateMutability": "view",
      "type": "function"
    },
    {
      "inputs": [],
      "name": "name",
      "outputs": [
        {
          "internalType": "string",
          "name": "",
          "type": "string"
        }
      ],
      "stateMutability": "view",
      "type": "function"
    },
    {
      "inputs": [],
      "name": "owner",
      "outputs": [
        {
          "internalType": "address",
          "name": "",
          "type": "address"
        }
      ],
      "stateMutability": "view",
      "type": "function"
    },
    {
      "inputs": [
        {
          "internalType": "uint256",
          "name": "tokenId",
          "type": "uint256"
        }
      ],
      "name": "ownerOf",
      "outputs": [
        {
          "internalType": "address",
          "name": "",
          "type": "address"
        }
      ],
      "stateMutability": "view",
      "type": "function"
    },
    {
      "inputs": [],
      "name": "renounceOwnership",
      "outputs": [],
      "stateMutability": "nonpayable",
      "type": "function"
    },
    {
      "inputs": [
        {
          "internalType": "address",
          "name": "from",
          "type": "address"
        },
        {
          "internalType": "address",
          "name": "to",
          "type": "address"
        },
        {
          "internalType": "uint256",
          "name": "tokenId",
          "type": "uint256"
        }
      ],
      "name": "safeTransferFrom",
      "outputs": [],
      "stateMutability": "nonpayable",
      "type": "function"
    },
    {
      "inputs": [
        {
          "internalType": "address",
          "name": "from",
          "type": "address"
        },
        {
          "internalType": "address",
          "name": "to",
          "type": "address"
        },
        {
          "internalType": "uint256",
          "name": "tokenId",
          "type": "uint256"
        },
        {
          "internalType": "bytes",
          "name": "_data",
          "type": "bytes"
        }
      ],
      "name": "safeTransferFrom",
      "outputs": [],
      "stateMutability": "nonpayable",
      "type": "function"
    },
    {
      "inputs": [
        {
          "internalType": "address",
          "name": "operator",
          "type": "address"
        },
        {
          "internalType": "bool",
          "name": "approved",
          "type": "bool"
        }
      ],
      "name": "setApprovalForAll",
      "outputs": [],
      "stateMutability": "nonpayable",
      "type": "function"
    },
    {
      "inputs": [
        {
          "internalType": "bytes4",
          "name": "interfaceId",
          "type": "bytes4"
        }
      ],
      "name": "supportsInterface",
      "outputs": [
        {
          "internalType": "bool",
          "name": "",
          "type": "bool"
        }
      ],
      "stateMutability": "view",
      "type": "function"
    },
    {
      "inputs": [
        {
          "internalType": "string",
          "name": "svg",
          "type": "string"
        }
      ],
      "name": "svgToImageURI",
      "outputs": [
        {
          "internalType": "string",
          "name": "",
          "type": "string"
        }
      ],
      "stateMutability": "pure",
      "type": "function"
    },
    {
      "inputs": [],
      "name": "symbol",
      "outputs": [
        {
          "internalType": "string",
          "name": "",
          "type": "string"
        }
      ],
      "stateMutability": "view",
      "type": "function"
    },
    {
      "inputs": [],
      "name": "tokenCounter",
      "outputs": [
        {
          "internalType": "uint256",
          "name": "",
          "type": "uint256"
        }
      ],
      "stateMutability": "view",
      "type": "function"
    },
    {
      "inputs": [
        {
          "internalType": "uint256",
          "name": "tokenId",
          "type": "uint256"
        }
      ],
      "name": "tokenURI",
      "outputs": [
        {
          "internalType": "string",
          "name": "",
          "type": "string"
        }
      ],
      "stateMutability": "view",
      "type": "function"
    },
    {
      "inputs": [
        {
          "internalType": "address",
          "name": "from",
          "type": "address"
        },
        {
          "internalType": "address",
          "name": "to",
          "type": "address"
        },
        {
          "internalType": "uint256",
          "name": "tokenId",
          "type": "uint256"
        }
      ],
      "name": "transferFrom",
      "outputs": [],
      "stateMutability": "nonpayable",
      "type": "function"
    },
    {
      "inputs": [
        {
          "internalType": "address",
          "name": "newOwner",
          "type": "address"
        }
      ],
      "name": "transferOwnership",
      "outputs": [],
      "stateMutability": "nonpayable",
      "type": "function"
    }
  ],
  "transactionHash": "0xb6ab096e2c4e7770e1e486d128435e0aa3cd1f2e36c9997db9f6692e2462ad11",
  "args": [],
  "numDeployments": 1,
  "solcInputHash": "9d6c2314d02c59f2c3ca43d8d3c92bdf",
  "bytecode": "0x60806040523480156200001157600080fd5b506040518060400160405280600781526020017f535647204e4654000000000000000000000000000000000000000000000000008152506040518060400160405280600681526020017f7376674e46540000000000000000000000000000000000000000000000000000815250816000908051906020019062000096929190620001ae565b508060019080519060200190620000af929190620001ae565b505050620000d2620000c6620000e060201b60201c565b620000e860201b60201c565b6000600881905550620002c3565b600033905090565b6000600760009054906101000a900473ffffffffffffffffffffffffffffffffffffffff16905081600760006101000a81548173ffffffffffffffffffffffffffffffffffffffff021916908373ffffffffffffffffffffffffffffffffffffffff1602179055508173ffffffffffffffffffffffffffffffffffffffff168173ffffffffffffffffffffffffffffffffffffffff167f8be0079c531659141344cd1fd0a4f28419497f9722a3daafe3b4186f6b6457e060405160405180910390a35050565b828054620001bc906200025e565b90600052602060002090601f016020900481019282620001e057600085556200022c565b82601f10620001fb57805160ff19168380011785556200022c565b828001600101855582156200022c579182015b828111156200022b5782518255916020019190600101906200020e565b5b5090506200023b91906200023f565b5090565b5b808211156200025a57600081600090555060010162000240565b5090565b600060028204905060018216806200027757607f821691505b602082108114156200028e576200028d62000294565b5b50919050565b7f4e487b7100000000000000000000000000000000000000000000000000000000600052602260045260246000fd5b6135bc80620002d36000396000f3fe608060405234801561001057600080fd5b506004361061012c5760003560e01c806371aee193116100ad578063b88d4fde11610071578063b88d4fde14610341578063c87b56dd1461035d578063d082e3811461038d578063e985e9c5146103ab578063f2fde38b146103db5761012c565b806371aee1931461029d5780638da5cb5b146102cd57806395d89b41146102eb578063a22cb46514610309578063b6a46b3b146103255761012c565b806330d871c6116100f457806330d871c6146101e757806342842e0e146102175780636352211e1461023357806370a0823114610263578063715018a6146102935761012c565b806301ffc9a71461013157806306fdde0314610161578063081812fc1461017f578063095ea7b3146101af57806323b872dd146101cb575b600080fd5b61014b6004803603810190610146919061224c565b6103f7565b6040516101589190612804565b60405180910390f35b6101696104d9565b604051610176919061281f565b60405180910390f35b610199600480360381019061019491906122df565b61056b565b6040516101a6919061279d565b60405180910390f35b6101c960048036038101906101c49190612210565b6105f0565b005b6101e560048036038101906101e0919061210a565b610708565b005b61020160048036038101906101fc919061229e565b610768565b60405161020e919061281f565b60405180910390f35b610231600480360381019061022c919061210a565b6107fb565b005b61024d600480360381019061024891906122df565b61081b565b60405161025a919061279d565b60405180910390f35b61027d600480360381019061027891906120a5565b6108cd565b60405161028a9190612a81565b60405180910390f35b61029b610985565b005b6102b760048036038101906102b2919061229e565b610a0d565b6040516102c4919061281f565b60405180910390f35b6102d5610a5d565b6040516102e2919061279d565b60405180910390f35b6102f3610a87565b604051610300919061281f565b60405180910390f35b610323600480360381019061031e91906121d4565b610b19565b005b61033f600480360381019061033a919061229e565b610b2f565b005b61035b60048036038101906103569190612159565b610baf565b005b610377600480360381019061037291906122df565b610c11565b604051610384919061281f565b60405180910390f35b610395610d63565b6040516103a29190612a81565b60405180910390f35b6103c560048036038101906103c091906120ce565b610d69565b6040516103d29190612804565b60405180910390f35b6103f560048036038101906103f091906120a5565b610dfd565b005b60007f80ac58cd000000000000000000000000000000000000000000000000000000007bffffffffffffffffffffffffffffffffffffffffffffffffffffffff1916827bffffffffffffffffffffffffffffffffffffffffffffffffffffffff191614806104c257507f5b5e139f000000000000000000000000000000000000000000000000000000007bffffffffffffffffffffffffffffffffffffffffffffffffffffffff1916827bffffffffffffffffffffffffffffffffffffffffffffffffffffffff1916145b806104d257506104d182610ef5565b5b9050919050565b6060600080546104e890612d31565b80601f016020809104026020016040519081016040528092919081815260200182805461051490612d31565b80156105615780601f1061053657610100808354040283529160200191610561565b820191906000526020600020905b81548152906001019060200180831161054457829003601f168201915b5050505050905090565b600061057682610f5f565b6105b5576040517f08c379a00000000000000000000000000000000000000000000000000000000081526004016105ac906129c1565b60405180910390fd5b6004600083815260200190815260200160002060009054906101000a900473ffffffffffffffffffffffffffffffffffffffff169050919050565b60006105fb8261081b565b90508073ffffffffffffffffffffffffffffffffffffffff168373ffffffffffffffffffffffffffffffffffffffff16141561066c576040517f08c379a000000000000000000000000000000000000000000000000000000000815260040161066390612a41565b60405180910390fd5b8073ffffffffffffffffffffffffffffffffffffffff1661068b610fcb565b73ffffffffffffffffffffffffffffffffffffffff1614806106ba57506106b9816106b4610fcb565b610d69565b5b6106f9576040517f08c379a00000000000000000000000000000000000000000000000000000000081526004016106f090612901565b60405180910390fd5b6107038383610fd3565b505050565b610719610713610fcb565b8261108c565b610758576040517f08c379a000000000000000000000000000000000000000000000000000000000815260040161074f90612a61565b60405180910390fd5b61076383838361116a565b505050565b606060006040518060400160405280601a81526020017f646174613a696d6167652f7376672b786d6c3b6261736536342c000000000000815250905060006107ce846040516020016107ba91906126fd565b6040516020818303038152906040526113c6565b905081816040516020016107e3929190612714565b60405160208183030381529060405292505050919050565b61081683838360405180602001604052806000815250610baf565b505050565b6000806002600084815260200190815260200160002060009054906101000a900473ffffffffffffffffffffffffffffffffffffffff169050600073ffffffffffffffffffffffffffffffffffffffff168173ffffffffffffffffffffffffffffffffffffffff1614156108c4576040517f08c379a00000000000000000000000000000000000000000000000000000000081526004016108bb90612941565b60405180910390fd5b80915050919050565b60008073ffffffffffffffffffffffffffffffffffffffff168273ffffffffffffffffffffffffffffffffffffffff16141561093e576040517f08c379a000000000000000000000000000000000000000000000000000000000815260040161093590612921565b60405180910390fd5b600360008373ffffffffffffffffffffffffffffffffffffffff1673ffffffffffffffffffffffffffffffffffffffff168152602001908152602001600020549050919050565b61098d610fcb565b73ffffffffffffffffffffffffffffffffffffffff166109ab610a5d565b73ffffffffffffffffffffffffffffffffffffffff1614610a01576040517f08c379a00000000000000000000000000000000000000000000000000000000081526004016109f8906129e1565b60405180910390fd5b610a0b6000611565565b565b6060610a3782604051602001610a239190612738565b6040516020818303038152906040526113c6565b604051602001610a47919061277b565b6040516020818303038152906040529050919050565b6000600760009054906101000a900473ffffffffffffffffffffffffffffffffffffffff16905090565b606060018054610a9690612d31565b80601f0160208091040260200160405190810160405280929190818152602001828054610ac290612d31565b8015610b0f5780601f10610ae457610100808354040283529160200191610b0f565b820191906000526020600020905b815481529060010190602001808311610af257829003601f168201915b5050505050905090565b610b2b610b24610fcb565b838361162b565b5050565b610b3b33600854611798565b6000610b4682610768565b9050610b5c600854610b5783610a0d565b6117b6565b6001600854610b6b9190612b66565b6008819055506008547ff5acc616aa8ecd00e5d76674d7812f9c3c3571d662c9fba4499deefa6d0be12d83604051610ba3919061281f565b60405180910390a25050565b610bc0610bba610fcb565b8361108c565b610bff576040517f08c379a0000000000000000000000000000000000000000000000000000000008152600401610bf690612a61565b60405180910390fd5b610c0b8484848461182a565b50505050565b6060610c1c82610f5f565b610c5b576040517f08c379a0000000000000000000000000000000000000000000000000000000008152600401610c52906129a1565b60405180910390fd5b6000600660008481526020019081526020016000208054610c7b90612d31565b80601f0160208091040260200160405190810160405280929190818152602001828054610ca790612d31565b8015610cf45780601f10610cc957610100808354040283529160200191610cf4565b820191906000526020600020905b815481529060010190602001808311610cd757829003601f168201915b505050505090506000610d05611886565b9050600081511415610d1b578192505050610d5e565b600082511115610d50578082604051602001610d38929190612714565b60405160208183030381529060405292505050610d5e565b610d598461189d565b925050505b919050565b60085481565b6000600560008473ffffffffffffffffffffffffffffffffffffffff1673ffffffffffffffffffffffffffffffffffffffff16815260200190815260200160002060008373ffffffffffffffffffffffffffffffffffffffff1673ffffffffffffffffffffffffffffffffffffffff16815260200190815260200160002060009054906101000a900460ff16905092915050565b610e05610fcb565b73ffffffffffffffffffffffffffffffffffffffff16610e23610a5d565b73ffffffffffffffffffffffffffffffffffffffff1614610e79576040517f08c379a0000000000000000000000000000000000000000000000000000000008152600401610e70906129e1565b60405180910390fd5b600073ffffffffffffffffffffffffffffffffffffffff168173ffffffffffffffffffffffffffffffffffffffff161415610ee9576040517f08c379a0000000000000000000000000000000000000000000000000000000008152600401610ee090612861565b60405180910390fd5b610ef281611565565b50565b60007f01ffc9a7000000000000000000000000000000000000000000000000000000007bffffffffffffffffffffffffffffffffffffffffffffffffffffffff1916827bffffffffffffffffffffffffffffffffffffffffffffffffffffffff1916149050919050565b60008073ffffffffffffffffffffffffffffffffffffffff166002600084815260200190815260200160002060009054906101000a900473ffffffffffffffffffffffffffffffffffffffff1673ffffffffffffffffffffffffffffffffffffffff1614159050919050565b600033905090565b816004600083815260200190815260200160002060006101000a81548173ffffffffffffffffffffffffffffffffffffffff021916908373ffffffffffffffffffffffffffffffffffffffff160217905550808273ffffffffffffffffffffffffffffffffffffffff166110468361081b565b73ffffffffffffffffffffffffffffffffffffffff167f8c5be1e5ebec7d5bd14f71427d1e84f3dd0314c0f7b2291e5b200ac8c7c3b92560405160405180910390a45050565b600061109782610f5f565b6110d6576040517f08c379a00000000000000000000000000000000000000000000000000000000081526004016110cd906128e1565b60405180910390fd5b60006110e18361081b565b90508073ffffffffffffffffffffffffffffffffffffffff168473ffffffffffffffffffffffffffffffffffffffff16148061115057508373ffffffffffffffffffffffffffffffffffffffff166111388461056b565b73ffffffffffffffffffffffffffffffffffffffff16145b8061116157506111608185610d69565b5b91505092915050565b8273ffffffffffffffffffffffffffffffffffffffff1661118a8261081b565b73ffffffffffffffffffffffffffffffffffffffff16146111e0576040517f08c379a00000000000000000000000000000000000000000000000000000000081526004016111d790612a01565b60405180910390fd5b600073ffffffffffffffffffffffffffffffffffffffff168273ffffffffffffffffffffffffffffffffffffffff161415611250576040517f08c379a0000000000000000000000000000000000000000000000000000000008152600401611247906128a1565b60405180910390fd5b61125b838383611944565b611266600082610fd3565b6001600360008573ffffffffffffffffffffffffffffffffffffffff1673ffffffffffffffffffffffffffffffffffffffff16815260200190815260200160002060008282546112b69190612c47565b925050819055506001600360008473ffffffffffffffffffffffffffffffffffffffff1673ffffffffffffffffffffffffffffffffffffffff168152602001908152602001600020600082825461130d9190612b66565b92505081905550816002600083815260200190815260200160002060006101000a81548173ffffffffffffffffffffffffffffffffffffffff021916908373ffffffffffffffffffffffffffffffffffffffff160217905550808273ffffffffffffffffffffffffffffffffffffffff168473ffffffffffffffffffffffffffffffffffffffff167fddf252ad1be2c89b69c2b068fc378daa952ba7f163c4a11628f55a4df523b3ef60405160405180910390a4505050565b60606000825114156113e957604051806020016040528060008152509050611560565b600060405180606001604052806040815260200161354760409139905060006003600285516114189190612b66565b6114229190612bbc565b600461142e9190612bed565b9050600060208261143f9190612b66565b67ffffffffffffffff81111561147e577f4e487b7100000000000000000000000000000000000000000000000000000000600052604160045260246000fd5b6040519080825280601f01601f1916602001820160405280156114b05781602001600182028036833780820191505090505b509050818152600183018586518101602084015b8183101561151f576003830192508251603f8160121c168501518253600182019150603f81600c1c168501518253600182019150603f8160061c168501518253600182019150603f81168501518253600182019150506114c4565b600389510660018114611539576002811461154957611554565b613d3d60f01b6002830352611554565b603d60f81b60018303525b50505050508093505050505b919050565b6000600760009054906101000a900473ffffffffffffffffffffffffffffffffffffffff16905081600760006101000a81548173ffffffffffffffffffffffffffffffffffffffff021916908373ffffffffffffffffffffffffffffffffffffffff1602179055508173ffffffffffffffffffffffffffffffffffffffff168173ffffffffffffffffffffffffffffffffffffffff167f8be0079c531659141344cd1fd0a4f28419497f9722a3daafe3b4186f6b6457e060405160405180910390a35050565b8173ffffffffffffffffffffffffffffffffffffffff168373ffffffffffffffffffffffffffffffffffffffff16141561169a576040517f08c379a0000000000000000000000000000000000000000000000000000000008152600401611691906128c1565b60405180910390fd5b80600560008573ffffffffffffffffffffffffffffffffffffffff1673ffffffffffffffffffffffffffffffffffffffff16815260200190815260200160002060008473ffffffffffffffffffffffffffffffffffffffff1673ffffffffffffffffffffffffffffffffffffffff16815260200190815260200160002060006101000a81548160ff0219169083151502179055508173ffffffffffffffffffffffffffffffffffffffff168373ffffffffffffffffffffffffffffffffffffffff167f17307eab39ab6107e8899845ad3d59bd9653f200f220920489ca2b5937696c318360405161178b9190612804565b60405180910390a3505050565b6117b2828260405180602001604052806000815250611949565b5050565b6117bf82610f5f565b6117fe576040517f08c379a00000000000000000000000000000000000000000000000000000000081526004016117f590612961565b60405180910390fd5b80600660008481526020019081526020016000209080519060200190611825929190611ec9565b505050565b61183584848461116a565b611841848484846119a4565b611880576040517f08c379a000000000000000000000000000000000000000000000000000000000815260040161187790612841565b60405180910390fd5b50505050565b606060405180602001604052806000815250905090565b60606118a882610f5f565b6118e7576040517f08c379a00000000000000000000000000000000000000000000000000000000081526004016118de90612a21565b60405180910390fd5b60006118f1611886565b90506000815111611911576040518060200160405280600081525061193c565b8061191b84611b3b565b60405160200161192c929190612714565b6040516020818303038152906040525b915050919050565b505050565b6119538383611ce8565b61196060008484846119a4565b61199f576040517f08c379a000000000000000000000000000000000000000000000000000000000815260040161199690612841565b60405180910390fd5b505050565b60006119c58473ffffffffffffffffffffffffffffffffffffffff16611eb6565b15611b2e578373ffffffffffffffffffffffffffffffffffffffff1663150b7a026119ee610fcb565b8786866040518563ffffffff1660e01b8152600401611a1094939291906127b8565b602060405180830381600087803b158015611a2a57600080fd5b505af1925050508015611a5b57506040513d601f19601f82011682018060405250810190611a589190612275565b60015b611ade573d8060008114611a8b576040519150601f19603f3d011682016040523d82523d6000602084013e611a90565b606091505b50600081511415611ad6576040517f08c379a0000000000000000000000000000000000000000000000000000000008152600401611acd90612841565b60405180910390fd5b805181602001fd5b63150b7a0260e01b7bffffffffffffffffffffffffffffffffffffffffffffffffffffffff1916817bffffffffffffffffffffffffffffffffffffffffffffffffffffffff191614915050611b33565b600190505b949350505050565b60606000821415611b83576040518060400160405280600181526020017f30000000000000000000000000000000000000000000000000000000000000008152509050611ce3565b600082905060005b60008214611bb5578080611b9e90612d94565b915050600a82611bae9190612bbc565b9150611b8b565b60008167ffffffffffffffff811115611bf7577f4e487b7100000000000000000000000000000000000000000000000000000000600052604160045260246000fd5b6040519080825280601f01601f191660200182016040528015611c295781602001600182028036833780820191505090505b5090505b60008514611cdc57600182611c429190612c47565b9150600a85611c519190612ddd565b6030611c5d9190612b66565b60f81b818381518110611c99577f4e487b7100000000000000000000000000000000000000000000000000000000600052603260045260246000fd5b60200101907effffffffffffffffffffffffffffffffffffffffffffffffffffffffffffff1916908160001a905350600a85611cd59190612bbc565b9450611c2d565b8093505050505b919050565b600073ffffffffffffffffffffffffffffffffffffffff168273ffffffffffffffffffffffffffffffffffffffff161415611d58576040517f08c379a0000000000000000000000000000000000000000000000000000000008152600401611d4f90612981565b60405180910390fd5b611d6181610f5f565b15611da1576040517f08c379a0000000000000000000000000000000000000000000000000000000008152600401611d9890612881565b60405180910390fd5b611dad60008383611944565b6001600360008473ffffffffffffffffffffffffffffffffffffffff1673ffffffffffffffffffffffffffffffffffffffff1681526020019081526020016000206000828254611dfd9190612b66565b92505081905550816002600083815260200190815260200160002060006101000a81548173ffffffffffffffffffffffffffffffffffffffff021916908373ffffffffffffffffffffffffffffffffffffffff160217905550808273ffffffffffffffffffffffffffffffffffffffff16600073ffffffffffffffffffffffffffffffffffffffff167fddf252ad1be2c89b69c2b068fc378daa952ba7f163c4a11628f55a4df523b3ef60405160405180910390a45050565b600080823b905060008111915050919050565b828054611ed590612d31565b90600052602060002090601f016020900481019282611ef75760008555611f3e565b82601f10611f1057805160ff1916838001178555611f3e565b82800160010185558215611f3e579182015b82811115611f3d578251825591602001919060010190611f22565b5b509050611f4b9190611f4f565b5090565b5b80821115611f68576000816000905550600101611f50565b5090565b6000611f7f611f7a84612ac1565b612a9c565b905082815260208101848484011115611f9757600080fd5b611fa2848285612cef565b509392505050565b6000611fbd611fb884612af2565b612a9c565b905082815260208101848484011115611fd557600080fd5b611fe0848285612cef565b509392505050565b600081359050611ff7816134ea565b92915050565b60008135905061200c81613501565b92915050565b60008135905061202181613518565b92915050565b60008151905061203681613518565b92915050565b600082601f83011261204d57600080fd5b813561205d848260208601611f6c565b91505092915050565b600082601f83011261207757600080fd5b8135612087848260208601611faa565b91505092915050565b60008135905061209f8161352f565b92915050565b6000602082840312156120b757600080fd5b60006120c584828501611fe8565b91505092915050565b600080604083850312156120e157600080fd5b60006120ef85828601611fe8565b925050602061210085828601611fe8565b9150509250929050565b60008060006060848603121561211f57600080fd5b600061212d86828701611fe8565b935050602061213e86828701611fe8565b925050604061214f86828701612090565b9150509250925092565b6000806000806080858703121561216f57600080fd5b600061217d87828801611fe8565b945050602061218e87828801611fe8565b935050604061219f87828801612090565b925050606085013567ffffffffffffffff8111156121bc57600080fd5b6121c88782880161203c565b91505092959194509250565b600080604083850312156121e757600080fd5b60006121f585828601611fe8565b925050602061220685828601611ffd565b9150509250929050565b6000806040838503121561222357600080fd5b600061223185828601611fe8565b925050602061224285828601612090565b9150509250929050565b60006020828403121561225e57600080fd5b600061226c84828501612012565b91505092915050565b60006020828403121561228757600080fd5b600061229584828501612027565b91505092915050565b6000602082840312156122b057600080fd5b600082013567ffffffffffffffff8111156122ca57600080fd5b6122d684828501612066565b91505092915050565b6000602082840312156122f157600080fd5b60006122ff84828501612090565b91505092915050565b61231181612c7b565b82525050565b61232081612c8d565b82525050565b600061233182612b23565b61233b8185612b39565b935061234b818560208601612cfe565b61235481612eca565b840191505092915050565b600061236a82612b2e565b6123748185612b4a565b9350612384818560208601612cfe565b61238d81612eca565b840191505092915050565b60006123a382612b2e565b6123ad8185612b5b565b93506123bd818560208601612cfe565b80840191505092915050565b60006123d6600983612b5b565b91506123e182612edb565b600982019050919050565b60006123f9603283612b4a565b915061240482612f04565b604082019050919050565b600061241c602683612b4a565b915061242782612f53565b604082019050919050565b600061243f601c83612b4a565b915061244a82612fa2565b602082019050919050565b6000612462602483612b4a565b915061246d82612fcb565b604082019050919050565b6000612485601983612b4a565b91506124908261301a565b602082019050919050565b60006124a8602c83612b4a565b91506124b382613043565b604082019050919050565b60006124cb600783612b5b565b91506124d682613092565b600782019050919050565b60006124ee603883612b4a565b91506124f9826130bb565b604082019050919050565b6000612511602a83612b4a565b915061251c8261310a565b604082019050919050565b6000612534602983612b4a565b915061253f82613159565b604082019050919050565b6000612557602e83612b4a565b9150612562826131a8565b604082019050919050565b600061257a600283612b5b565b9150612585826131f7565b600282019050919050565b600061259d602083612b4a565b91506125a882613220565b602082019050919050565b60006125c0603183612b4a565b91506125cb82613249565b604082019050919050565b60006125e3602c83612b4a565b91506125ee82613298565b604082019050919050565b6000612606602083612b4a565b9150612611826132e7565b602082019050919050565b6000612629602983612b4a565b915061263482613310565b604082019050919050565b600061264c602f83612b4a565b91506126578261335f565b604082019050919050565b600061266f604383612b5b565b915061267a826133ae565b604382019050919050565b6000612692602183612b4a565b915061269d82613423565b604082019050919050565b60006126b5601d83612b5b565b91506126c082613472565b601d82019050919050565b60006126d8603183612b4a565b91506126e38261349b565b604082019050919050565b6126f781612ce5565b82525050565b60006127098284612398565b915081905092915050565b60006127208285612398565b915061272c8284612398565b91508190509392505050565b6000612743826123c9565b915061274e826124be565b915061275982612662565b91506127658284612398565b91506127708261256d565b915081905092915050565b6000612786826126a8565b91506127928284612398565b915081905092915050565b60006020820190506127b26000830184612308565b92915050565b60006080820190506127cd6000830187612308565b6127da6020830186612308565b6127e760408301856126ee565b81810360608301526127f98184612326565b905095945050505050565b60006020820190506128196000830184612317565b92915050565b60006020820190508181036000830152612839818461235f565b905092915050565b6000602082019050818103600083015261285a816123ec565b9050919050565b6000602082019050818103600083015261287a8161240f565b9050919050565b6000602082019050818103600083015261289a81612432565b9050919050565b600060208201905081810360008301526128ba81612455565b9050919050565b600060208201905081810360008301526128da81612478565b9050919050565b600060208201905081810360008301526128fa8161249b565b9050919050565b6000602082019050818103600083015261291a816124e1565b9050919050565b6000602082019050818103600083015261293a81612504565b9050919050565b6000602082019050818103600083015261295a81612527565b9050919050565b6000602082019050818103600083015261297a8161254a565b9050919050565b6000602082019050818103600083015261299a81612590565b9050919050565b600060208201905081810360008301526129ba816125b3565b9050919050565b600060208201905081810360008301526129da816125d6565b9050919050565b600060208201905081810360008301526129fa816125f9565b9050919050565b60006020820190508181036000830152612a1a8161261c565b9050919050565b60006020820190508181036000830152612a3a8161263f565b9050919050565b60006020820190508181036000830152612a5a81612685565b9050919050565b60006020820190508181036000830152612a7a816126cb565b9050919050565b6000602082019050612a9660008301846126ee565b92915050565b6000612aa6612ab7565b9050612ab28282612d63565b919050565b6000604051905090565b600067ffffffffffffffff821115612adc57612adb612e9b565b5b612ae582612eca565b9050602081019050919050565b600067ffffffffffffffff821115612b0d57612b0c612e9b565b5b612b1682612eca565b9050602081019050919050565b600081519050919050565b600081519050919050565b600082825260208201905092915050565b600082825260208201905092915050565b600081905092915050565b6000612b7182612ce5565b9150612b7c83612ce5565b9250827fffffffffffffffffffffffffffffffffffffffffffffffffffffffffffffffff03821115612bb157612bb0612e0e565b5b828201905092915050565b6000612bc782612ce5565b9150612bd283612ce5565b925082612be257612be1612e3d565b5b828204905092915050565b6000612bf882612ce5565b9150612c0383612ce5565b9250817fffffffffffffffffffffffffffffffffffffffffffffffffffffffffffffffff0483118215151615612c3c57612c3b612e0e565b5b828202905092915050565b6000612c5282612ce5565b9150612c5d83612ce5565b925082821015612c7057612c6f612e0e565b5b828203905092915050565b6000612c8682612cc5565b9050919050565b60008115159050919050565b60007fffffffff0000000000000000000000000000000000000000000000000000000082169050919050565b600073ffffffffffffffffffffffffffffffffffffffff82169050919050565b6000819050919050565b82818337600083830152505050565b60005b83811015612d1c578082015181840152602081019050612d01565b83811115612d2b576000848401525b50505050565b60006002820490506001821680612d4957607f821691505b60208210811415612d5d57612d5c612e6c565b5b50919050565b612d6c82612eca565b810181811067ffffffffffffffff82111715612d8b57612d8a612e9b565b5b80604052505050565b6000612d9f82612ce5565b91507fffffffffffffffffffffffffffffffffffffffffffffffffffffffffffffffff821415612dd257612dd1612e0e565b5b600182019050919050565b6000612de882612ce5565b9150612df383612ce5565b925082612e0357612e02612e3d565b5b828206905092915050565b7f4e487b7100000000000000000000000000000000000000000000000000000000600052601160045260246000fd5b7f4e487b7100000000000000000000000000000000000000000000000000000000600052601260045260246000fd5b7f4e487b7100000000000000000000000000000000000000000000000000000000600052602260045260246000fd5b7f4e487b7100000000000000000000000000000000000000000000000000000000600052604160045260246000fd5b6000601f19601f8301169050919050565b7f7b226e616d65223a220000000000000000000000000000000000000000000000600082015250565b7f4552433732313a207472616e7366657220746f206e6f6e20455243373231526560008201527f63656976657220696d706c656d656e7465720000000000000000000000000000602082015250565b7f4f776e61626c653a206e6577206f776e657220697320746865207a65726f206160008201527f6464726573730000000000000000000000000000000000000000000000000000602082015250565b7f4552433732313a20746f6b656e20616c7265616479206d696e74656400000000600082015250565b7f4552433732313a207472616e7366657220746f20746865207a65726f2061646460008201527f7265737300000000000000000000000000000000000000000000000000000000602082015250565b7f4552433732313a20617070726f766520746f2063616c6c657200000000000000600082015250565b7f4552433732313a206f70657261746f7220717565727920666f72206e6f6e657860008201527f697374656e7420746f6b656e0000000000000000000000000000000000000000602082015250565b7f535647204e465400000000000000000000000000000000000000000000000000600082015250565b7f4552433732313a20617070726f76652063616c6c6572206973206e6f74206f7760008201527f6e6572206e6f7220617070726f76656420666f7220616c6c0000000000000000602082015250565b7f4552433732313a2062616c616e636520717565727920666f7220746865207a6560008201527f726f206164647265737300000000000000000000000000000000000000000000602082015250565b7f4552433732313a206f776e657220717565727920666f72206e6f6e657869737460008201527f656e7420746f6b656e0000000000000000000000000000000000000000000000602082015250565b7f45524337323155524953746f726167653a2055524920736574206f66206e6f6e60008201527f6578697374656e7420746f6b656e000000000000000000000000000000000000602082015250565b7f227d000000000000000000000000000000000000000000000000000000000000600082015250565b7f4552433732313a206d696e7420746f20746865207a65726f2061646472657373600082015250565b7f45524337323155524953746f726167653a2055524920717565727920666f722060008201527f6e6f6e6578697374656e7420746f6b656e000000000000000000000000000000602082015250565b7f4552433732313a20617070726f76656420717565727920666f72206e6f6e657860008201527f697374656e7420746f6b656e0000000000000000000000000000000000000000602082015250565b7f4f776e61626c653a2063616c6c6572206973206e6f7420746865206f776e6572600082015250565b7f4552433732313a207472616e73666572206f6620746f6b656e2074686174206960008201527f73206e6f74206f776e0000000000000000000000000000000000000000000000602082015250565b7f4552433732314d657461646174613a2055524920717565727920666f72206e6f60008201527f6e6578697374656e7420746f6b656e0000000000000000000000000000000000602082015250565b7f222c20226465736372697074696f6e223a22416e204e4654206261736564206f60008201527f6e2053564721222c202261747472696275746573223a22222c2022696d61676560208201527f223a220000000000000000000000000000000000000000000000000000000000604082015250565b7f4552433732313a20617070726f76616c20746f2063757272656e74206f776e6560008201527f7200000000000000000000000000000000000000000000000000000000000000602082015250565b7f646174613a6170706c69636174696f6e2f6a736f6e3b6261736536342c000000600082015250565b7f4552433732313a207472616e736665722063616c6c6572206973206e6f74206f60008201527f776e6572206e6f7220617070726f766564000000000000000000000000000000602082015250565b6134f381612c7b565b81146134fe57600080fd5b50565b61350a81612c8d565b811461351557600080fd5b50565b61352181612c99565b811461352c57600080fd5b50565b61353881612ce5565b811461354357600080fd5b5056fe4142434445464748494a4b4c4d4e4f505152535455565758595a6162636465666768696a6b6c6d6e6f707172737475767778797a303132333435363738392b2fa264697066735822122075f412816a000b9f6a508d77648f42f094d0cf9c13563db96c9a7f1b213648cf64736f6c63430008040033",
  "devdoc": {
    "kind": "dev",
    "methods": {
      "approve(address,uint256)": {
        "details": "See {IERC721-approve}."
      },
      "balanceOf(address)": {
        "details": "See {IERC721-balanceOf}."
      },
      "getApproved(uint256)": {
        "details": "See {IERC721-getApproved}."
      },
      "isApprovedForAll(address,address)": {
        "details": "See {IERC721-isApprovedForAll}."
      },
      "name()": {
        "details": "See {IERC721Metadata-name}."
      },
      "owner()": {
        "details": "Returns the address of the current owner."
      },
      "ownerOf(uint256)": {
        "details": "See {IERC721-ownerOf}."
      },
      "renounceOwnership()": {
        "details": "Leaves the contract without owner. It will not be possible to call `onlyOwner` functions anymore. Can only be called by the current owner. NOTE: Renouncing ownership will leave the contract without an owner, thereby removing any functionality that is only available to the owner."
      },
      "safeTransferFrom(address,address,uint256)": {
        "details": "See {IERC721-safeTransferFrom}."
      },
      "safeTransferFrom(address,address,uint256,bytes)": {
        "details": "See {IERC721-safeTransferFrom}."
      },
      "setApprovalForAll(address,bool)": {
        "details": "See {IERC721-setApprovalForAll}."
      },
      "supportsInterface(bytes4)": {
        "details": "See {IERC165-supportsInterface}."
      },
      "symbol()": {
        "details": "See {IERC721Metadata-symbol}."
      },
      "tokenURI(uint256)": {
        "details": "See {IERC721Metadata-tokenURI}."
      },
      "transferFrom(address,address,uint256)": {
        "details": "See {IERC721-transferFrom}."
      },
      "transferOwnership(address)": {
        "details": "Transfers ownership of the contract to a new account (`newOwner`). Can only be called by the current owner."
      }
    },
    "version": 1
  },
  "userdoc": {
    "kind": "user",
    "methods": {},
    "version": 1
  },
  "storageLayout": {
    "storage": [
      {
        "astId": 130,
        "contract": "contracts/SVGNFT.sol:SVGNFT",
        "label": "_name",
        "offset": 0,
        "slot": "0",
        "type": "t_string_storage"
      },
      {
        "astId": 132,
        "contract": "contracts/SVGNFT.sol:SVGNFT",
        "label": "_symbol",
        "offset": 0,
        "slot": "1",
        "type": "t_string_storage"
      },
      {
        "astId": 136,
        "contract": "contracts/SVGNFT.sol:SVGNFT",
        "label": "_owners",
        "offset": 0,
        "slot": "2",
        "type": "t_mapping(t_uint256,t_address)"
      },
      {
        "astId": 140,
        "contract": "contracts/SVGNFT.sol:SVGNFT",
        "label": "_balances",
        "offset": 0,
        "slot": "3",
        "type": "t_mapping(t_address,t_uint256)"
      },
      {
        "astId": 144,
        "contract": "contracts/SVGNFT.sol:SVGNFT",
        "label": "_tokenApprovals",
        "offset": 0,
        "slot": "4",
        "type": "t_mapping(t_uint256,t_address)"
      },
      {
        "astId": 150,
        "contract": "contracts/SVGNFT.sol:SVGNFT",
        "label": "_operatorApprovals",
        "offset": 0,
        "slot": "5",
        "type": "t_mapping(t_address,t_mapping(t_address,t_bool))"
      },
      {
        "astId": 1082,
        "contract": "contracts/SVGNFT.sol:SVGNFT",
        "label": "_tokenURIs",
        "offset": 0,
        "slot": "6",
        "type": "t_mapping(t_uint256,t_string_storage)"
      },
      {
        "astId": 7,
        "contract": "contracts/SVGNFT.sol:SVGNFT",
        "label": "_owner",
        "offset": 0,
        "slot": "7",
        "type": "t_address"
      },
      {
        "astId": 1908,
        "contract": "contracts/SVGNFT.sol:SVGNFT",
        "label": "tokenCounter",
        "offset": 0,
        "slot": "8",
        "type": "t_uint256"
      }
    ],
    "types": {
      "t_address": {
        "encoding": "inplace",
        "label": "address",
        "numberOfBytes": "20"
      },
      "t_bool": {
        "encoding": "inplace",
        "label": "bool",
        "numberOfBytes": "1"
      },
      "t_mapping(t_address,t_bool)": {
        "encoding": "mapping",
        "key": "t_address",
        "label": "mapping(address => bool)",
        "numberOfBytes": "32",
        "value": "t_bool"
      },
      "t_mapping(t_address,t_mapping(t_address,t_bool))": {
        "encoding": "mapping",
        "key": "t_address",
        "label": "mapping(address => mapping(address => bool))",
        "numberOfBytes": "32",
        "value": "t_mapping(t_address,t_bool)"
      },
      "t_mapping(t_address,t_uint256)": {
        "encoding": "mapping",
        "key": "t_address",
        "label": "mapping(address => uint256)",
        "numberOfBytes": "32",
        "value": "t_uint256"
      },
      "t_mapping(t_uint256,t_address)": {
        "encoding": "mapping",
        "key": "t_uint256",
        "label": "mapping(uint256 => address)",
        "numberOfBytes": "32",
        "value": "t_address"
      },
      "t_mapping(t_uint256,t_string_storage)": {
        "encoding": "mapping",
        "key": "t_uint256",
        "label": "mapping(uint256 => string)",
        "numberOfBytes": "32",
        "value": "t_string_storage"
      },
      "t_string_storage": {
        "encoding": "bytes",
        "label": "string",
        "numberOfBytes": "32"
      },
      "t_uint256": {
        "encoding": "inplace",
        "label": "uint256",
        "numberOfBytes": "32"
      }
    }
  }
}